{
  "contractName": "ZKPayroll",
  "abi": [
    {
      "inputs": [
        {
          "internalType": "address",
          "name": "_verifiersAddress",
          "type": "address"
        }
      ],
      "stateMutability": "nonpayable",
      "type": "constructor"
    },
    {
      "anonymous": false,
      "inputs": [
        {
          "indexed": true,
          "internalType": "uint256",
          "name": "groupId",
          "type": "uint256"
        },
        {
          "indexed": false,
          "internalType": "uint8",
          "name": "depth",
          "type": "uint8"
        },
        {
          "indexed": false,
          "internalType": "uint256",
          "name": "zeroValue",
          "type": "uint256"
        }
      ],
      "name": "GroupCreated",
      "type": "event"
    },
    {
      "anonymous": false,
      "inputs": [
        {
          "indexed": true,
          "internalType": "uint256",
          "name": "groupId",
          "type": "uint256"
        },
        {
          "indexed": false,
          "internalType": "uint256",
          "name": "identityCommitment",
          "type": "uint256"
        },
        {
          "indexed": false,
          "internalType": "uint256",
          "name": "root",
          "type": "uint256"
        }
      ],
      "name": "MemberAdded",
      "type": "event"
    },
    {
      "anonymous": false,
      "inputs": [
        {
          "indexed": true,
          "internalType": "uint256",
          "name": "groupId",
          "type": "uint256"
        },
        {
          "indexed": false,
          "internalType": "uint256",
          "name": "identityCommitment",
          "type": "uint256"
        },
        {
          "indexed": false,
          "internalType": "uint256",
          "name": "root",
          "type": "uint256"
        }
      ],
      "name": "MemberRemoved",
      "type": "event"
    },
    {
      "anonymous": false,
      "inputs": [
        {
          "indexed": false,
          "internalType": "uint256",
          "name": "nullifierHash",
          "type": "uint256"
        }
      ],
      "name": "NullifierHashAdded",
      "type": "event"
    },
    {
      "anonymous": false,
      "inputs": [
        {
          "indexed": false,
          "internalType": "string",
          "name": "_employeeName",
          "type": "string"
        },
        {
          "indexed": false,
          "internalType": "uint256",
          "name": "_employeeId",
          "type": "uint256"
        }
      ],
      "name": "employeeCreated",
      "type": "event"
    },
    {
      "anonymous": false,
      "inputs": [
        {
          "indexed": false,
          "internalType": "address",
          "name": "_employerAddress",
          "type": "address"
        }
      ],
      "name": "employerCreated",
      "type": "event"
    },
    {
      "anonymous": false,
      "inputs": [
        {
          "indexed": false,
          "internalType": "uint256",
          "name": "_note",
          "type": "uint256"
        }
      ],
      "name": "noteCreated",
      "type": "event"
    },
    {
      "inputs": [
        {
          "internalType": "address",
          "name": "",
          "type": "address"
        }
      ],
      "name": "addressToemployer",
      "outputs": [
        {
          "internalType": "uint256",
          "name": "employerCommitment",
          "type": "uint256"
        },
        {
          "internalType": "uint256",
          "name": "employerId",
          "type": "uint256"
        },
        {
          "internalType": "enum IZKPayroll.employerState",
          "name": "state",
          "type": "uint8"
        },
        {
          "internalType": "bool",
          "name": "commitmentCheck",
          "type": "bool"
        }
      ],
      "stateMutability": "view",
      "type": "function",
      "constant": true
    },
    {
      "inputs": [],
      "name": "employeesCount",
      "outputs": [
        {
          "internalType": "uint256",
          "name": "",
          "type": "uint256"
        }
      ],
      "stateMutability": "view",
      "type": "function",
      "constant": true
    },
    {
      "inputs": [],
      "name": "employerCount",
      "outputs": [
        {
          "internalType": "uint256",
          "name": "",
          "type": "uint256"
        }
      ],
      "stateMutability": "view",
      "type": "function",
      "constant": true
    },
    {
      "inputs": [
        {
          "internalType": "uint256",
          "name": "groupId",
          "type": "uint256"
        }
      ],
      "name": "getDepth",
      "outputs": [
        {
          "internalType": "uint8",
          "name": "",
          "type": "uint8"
        }
      ],
      "stateMutability": "view",
      "type": "function",
      "constant": true
    },
    {
      "inputs": [
        {
          "internalType": "uint256",
          "name": "groupId",
          "type": "uint256"
        }
      ],
      "name": "getNumberOfLeaves",
      "outputs": [
        {
          "internalType": "uint256",
          "name": "",
          "type": "uint256"
        }
      ],
      "stateMutability": "view",
      "type": "function",
      "constant": true
    },
    {
      "inputs": [
        {
          "internalType": "uint256",
          "name": "groupId",
          "type": "uint256"
        }
      ],
      "name": "getRoot",
      "outputs": [
        {
          "internalType": "uint256",
          "name": "",
          "type": "uint256"
        }
      ],
      "stateMutability": "view",
      "type": "function",
      "constant": true
    },
    {
      "inputs": [
        {
          "internalType": "address",
          "name": "_employerAddress",
          "type": "address"
        }
      ],
      "name": "createEmployer",
      "outputs": [],
      "stateMutability": "nonpayable",
      "type": "function"
    },
    {
      "inputs": [
        {
          "internalType": "uint256",
          "name": "_commitment",
          "type": "uint256"
        }
      ],
      "name": "addEmployerCommitment",
      "outputs": [],
      "stateMutability": "nonpayable",
      "type": "function"
    },
    {
      "inputs": [
        {
          "internalType": "string",
          "name": "_employeeName",
          "type": "string"
        }
      ],
      "name": "addEmployee",
      "outputs": [],
      "stateMutability": "nonpayable",
      "type": "function"
    },
    {
      "inputs": [
        {
          "internalType": "uint256",
          "name": "_commitment",
          "type": "uint256"
        },
        {
          "internalType": "uint256",
          "name": "_id",
          "type": "uint256"
        }
      ],
      "name": "addEmployeeCommitment",
      "outputs": [],
      "stateMutability": "nonpayable",
      "type": "function"
    },
    {
      "inputs": [],
      "name": "getEmployeeIdList",
      "outputs": [
        {
          "internalType": "uint256[]",
          "name": "_employeeIdList",
          "type": "uint256[]"
        }
      ],
      "stateMutability": "view",
      "type": "function",
      "constant": true
    },
    {
      "inputs": [
        {
          "internalType": "uint256",
          "name": "_employerId",
          "type": "uint256"
        }
      ],
      "name": "getEmployerLeaves",
      "outputs": [
        {
          "internalType": "uint256[]",
          "name": "_employerLeaves",
          "type": "uint256[]"
        }
      ],
      "stateMutability": "view",
      "type": "function",
      "constant": true
    },
    {
      "inputs": [],
      "name": "getEmployerList",
      "outputs": [
        {
          "internalType": "address[]",
          "name": "_employerList",
          "type": "address[]"
        }
      ],
      "stateMutability": "view",
      "type": "function",
      "constant": true
    },
    {
      "inputs": [
        {
          "internalType": "uint256",
          "name": "_id",
          "type": "uint256"
        }
      ],
      "name": "getEmployeeDetails",
      "outputs": [
        {
          "internalType": "string",
          "name": "_employeeName",
          "type": "string"
        },
        {
          "internalType": "enum IZKPayroll.employeeState",
          "name": "_state",
          "type": "uint8"
        },
        {
          "internalType": "uint256",
          "name": "_employerId",
          "type": "uint256"
        },
        {
          "internalType": "uint256",
          "name": "_employeeCommitment",
          "type": "uint256"
        }
      ],
      "stateMutability": "view",
      "type": "function",
      "constant": true
    },
    {
      "inputs": [
        {
          "internalType": "uint256",
          "name": "_id",
          "type": "uint256"
        }
      ],
      "name": "getEmployeeEmployerId",
      "outputs": [
        {
          "internalType": "uint256",
          "name": "_employerId",
          "type": "uint256"
        }
      ],
      "stateMutability": "view",
      "type": "function",
      "constant": true
    },
    {
      "inputs": [],
      "name": "addfundToContract",
      "outputs": [],
      "stateMutability": "payable",
      "type": "function",
      "payable": true
    },
    {
      "inputs": [],
      "name": "getAvailableFund",
      "outputs": [
        {
          "internalType": "uint256",
          "name": "_fundValue",
          "type": "uint256"
        }
      ],
      "stateMutability": "view",
      "type": "function",
      "constant": true
    },
    {
      "inputs": [
        {
          "internalType": "uint256",
          "name": "_employeeId",
          "type": "uint256"
        },
        {
          "internalType": "uint256",
          "name": "_salary",
          "type": "uint256"
        },
        {
          "internalType": "uint256",
          "name": "_receivedCommitment",
          "type": "uint256"
        },
        {
          "internalType": "uint256",
          "name": "_identityCommitment",
          "type": "uint256"
        }
      ],
      "name": "addNotes",
      "outputs": [],
      "stateMutability": "nonpayable",
      "type": "function"
    },
    {
      "inputs": [
        {
          "internalType": "uint256",
          "name": "_withdrawalNotes",
          "type": "uint256"
        },
        {
          "internalType": "address payable",
          "name": "_withdrawalAddress",
          "type": "address"
        },
        {
          "internalType": "bytes32",
          "name": "withdraw",
          "type": "bytes32"
        },
        {
          "internalType": "uint256",
          "name": "nullifierHash",
          "type": "uint256"
        },
        {
          "internalType": "uint256",
          "name": "employerId",
          "type": "uint256"
        },
        {
          "internalType": "uint256[8]",
          "name": "proof",
          "type": "uint256[8]"
        }
      ],
      "name": "withdrawNotes",
      "outputs": [],
      "stateMutability": "nonpayable",
      "type": "function"
    }
  ],
  "bytecode": "0x60806040523480156200001157600080fd5b506040516200360a3803806200360a83398181016040528101906200003791906200013f565b33600c60006101000a81548173ffffffffffffffffffffffffffffffffffffffff021916908373ffffffffffffffffffffffffffffffffffffffff1602179055508060026000601460ff16815260200190815260200160002060006101000a81548173ffffffffffffffffffffffffffffffffffffffff021916908373ffffffffffffffffffffffffffffffffffffffff1602179055505062000171565b600080fd5b600073ffffffffffffffffffffffffffffffffffffffff82169050919050565b60006200010782620000da565b9050919050565b6200011981620000fa565b81146200012557600080fd5b50565b60008151905062000139816200010e565b92915050565b600060208284031215620001585762000157620000d5565b5b6000620001688482850162000128565b91505092915050565b61348980620001816000396000f3fe6080604052600436106101145760003560e01c80635089f38d116100a05780639073122311610064578063907312231461037c5780639b24b3b0146103bc578063a98b371b146103f9578063b9c78c2b14610439578063bdd4a0681461047657610114565b80635089f38d1461029957806375e618c9146102c257806379ceb311146102ff5780638b3aa6a4146103285780638e543a7c1461035157610114565b80632369ac45116100e75780632369ac45146101d557806325d4c9f6146101df5780632d2d03a61461021c5780633d2ba1d9146102455780634b62c4661461026e57610114565b80630bbcf45b1461011957806319b05bc6146101565780631d4bc948146101815780632308480b146101ac575b600080fd5b34801561012557600080fd5b50610140600480360381019061013b919061210f565b6104a1565b60405161014d919061214b565b60405180910390f35b34801561016257600080fd5b5061016b6105de565b6040516101789190612224565b60405180910390f35b34801561018d57600080fd5b5061019661072d565b6040516101a39190612336565b60405180910390f35b3480156101b857600080fd5b506101d360048036038101906101ce9190612384565b61084d565b005b6101dd610a11565b005b3480156101eb57600080fd5b506102066004803603810190610201919061210f565b610b20565b6040516102139190612224565b60405180910390f35b34801561022857600080fd5b50610243600480360381019061023e91906124f7565b610b8e565b005b34801561025157600080fd5b5061026c600480360381019061026791906125db565b610ee5565b005b34801561027a57600080fd5b50610283610fdc565b604051610290919061214b565b60405180910390f35b3480156102a557600080fd5b506102c060048036038101906102bb9190612669565b610fe2565b005b3480156102ce57600080fd5b506102e960048036038101906102e4919061210f565b611413565b6040516102f691906126ec565b60405180910390f35b34801561030b57600080fd5b506103266004803603810190610321919061210f565b611440565b005b34801561033457600080fd5b5061034f600480360381019061034a9190612707565b611632565b005b34801561035d57600080fd5b506103666116ea565b604051610373919061214b565b60405180910390f35b34801561038857600080fd5b506103a3600480360381019061039e9190612384565b6117e8565b6040516103b394939291906127d9565b60405180910390f35b3480156103c857600080fd5b506103e360048036038101906103de919061210f565b611832565b6040516103f0919061214b565b60405180910390f35b34801561040557600080fd5b50610420600480360381019061041b919061210f565b611852565b60405161043094939291906128ee565b60405180910390f35b34801561044557600080fd5b50610460600480360381019061045b919061210f565b611a62565b60405161046d919061214b565b60405180910390f35b34801561048257600080fd5b5061048b611a82565b604051610498919061214b565b60405180910390f35b60006104ab611f9c565b600560008481526020019081526020016000206040518060c00160405290816000820154815260200160018201548152602001600282015481526020016003820180546104f790612969565b80601f016020809104026020016040519081016040528092919081815260200182805461052390612969565b80156105705780601f1061054557610100808354040283529160200191610570565b820191906000526020600020905b81548152906001019060200180831161055357829003601f168201915b505050505081526020016004820160009054906101000a900460ff16600181111561059e5761059d612747565b5b60018111156105b0576105af612747565b5b81526020016004820160019054906101000a900460ff16151515158152505090508060400151915050919050565b6060336001808111156105f4576105f3612747565b5b600660008373ffffffffffffffffffffffffffffffffffffffff1673ffffffffffffffffffffffffffffffffffffffff16815260200190815260200160002060020160009054906101000a900460ff16600181111561065657610655612747565b5b14610696576040517f08c379a000000000000000000000000000000000000000000000000000000000815260040161068d906129e7565b60405180910390fd5b600760003373ffffffffffffffffffffffffffffffffffffffff1673ffffffffffffffffffffffffffffffffffffffff16815260200190815260200160002060000180548060200260200160405190810160405280929190818152602001828054801561072257602002820191906000526020600020905b81548152602001906001019080831161070e575b505050505091505090565b6060338073ffffffffffffffffffffffffffffffffffffffff16600c60009054906101000a900473ffffffffffffffffffffffffffffffffffffffff1673ffffffffffffffffffffffffffffffffffffffff16146107c0576040517f08c379a00000000000000000000000000000000000000000000000000000000081526004016107b790612a53565b60405180910390fd5b600380548060200260200160405190810160405280929190818152602001828054801561084257602002820191906000526020600020905b8160009054906101000a900473ffffffffffffffffffffffffffffffffffffffff1673ffffffffffffffffffffffffffffffffffffffff16815260200190600101908083116107f8575b505050505091505090565b6001600a60008282546108609190612aa2565b92505081905550610876600a5460146000611a88565b61087e611fe6565b600a548160200181815250506001816040019060018111156108a3576108a2612747565b5b908160018111156108b7576108b6612747565b5b81525050600081606001901515908115158152505080600660008473ffffffffffffffffffffffffffffffffffffffff1673ffffffffffffffffffffffffffffffffffffffff168152602001908152602001600020600082015181600001556020820151816001015560408201518160020160006101000a81548160ff0219169083600181111561094b5761094a612747565b5b021790555060608201518160020160016101000a81548160ff0219169083151502179055509050506003829080600181540180825580915050600190039060005260206000200160009091909190916101000a81548173ffffffffffffffffffffffffffffffffffffffff021916908373ffffffffffffffffffffffffffffffffffffffff1602179055507fbc10ec19de4ce59ac4b5972414228c992109c99041af4a98ee298aa3bfffafa382604051610a059190612b07565b60405180910390a15050565b33600180811115610a2557610a24612747565b5b600660008373ffffffffffffffffffffffffffffffffffffffff1673ffffffffffffffffffffffffffffffffffffffff16815260200190815260200160002060020160009054906101000a900460ff166001811115610a8757610a86612747565b5b14610ac7576040517f08c379a0000000000000000000000000000000000000000000000000000000008152600401610abe906129e7565b60405180910390fd5b34600860003373ffffffffffffffffffffffffffffffffffffffff1673ffffffffffffffffffffffffffffffffffffffff1681526020019081526020016000206000828254610b169190612aa2565b9250508190555050565b606060046000838152602001908152602001600020600001805480602002602001604051908101604052809291908181526020018280548015610b8257602002820191906000526020600020905b815481526020019060010190808311610b6e575b50505050509050919050565b33600180811115610ba257610ba1612747565b5b600660008373ffffffffffffffffffffffffffffffffffffffff1673ffffffffffffffffffffffffffffffffffffffff16815260200190815260200160002060020160009054906101000a900460ff166001811115610c0457610c03612747565b5b14610c44576040517f08c379a0000000000000000000000000000000000000000000000000000000008152600401610c3b906129e7565b60405180910390fd5b604051602001610c5390612b53565b6040516020818303038152906040528051906020012082604051602001610c7a9190612b99565b604051602081830303815290604052805190602001201415610cd1576040517f08c379a0000000000000000000000000000000000000000000000000000000008152600401610cc890612bfc565b60405180910390fd5b610cd9611f9c565b6001600b6000828254610cec9190612aa2565b92505081905550600b54816020018181525050828160600181905250600181608001906001811115610d2157610d20612747565b5b90816001811115610d3557610d34612747565b5b81525050600660003373ffffffffffffffffffffffffffffffffffffffff1673ffffffffffffffffffffffffffffffffffffffff1681526020019081526020016000206001015481604001818152505060008160a0019015159081151581525050600760003373ffffffffffffffffffffffffffffffffffffffff1673ffffffffffffffffffffffffffffffffffffffff168152602001908152602001600020600001600b5490806001815401808255809150506001900390600052602060002001600090919091909150558060056000600b5481526020019081526020016000206000820151816000015560208201518160010155604082015181600201556060820151816003019080519060200190610e51929190612022565b5060808201518160040160006101000a81548160ff02191690836001811115610e7d57610e7c612747565b5b021790555060a08201518160040160016101000a81548160ff0219169083151502179055509050507f29f60a863dde0da64901033655ff093ef68ef23d333bf462fb8552423ab759bd83600b54604051610ed8929190612c1c565b60405180910390a1505050565b6000610ef083611832565b9050600060026000601460ff16815260200190815260200160002060009054906101000a900473ffffffffffffffffffffffffffffffffffffffff169050610f3c868387878786611bf6565b6000600960008a81526020019081526020016000205490508773ffffffffffffffffffffffffffffffffffffffff166108fc829081150290604051600060405180830381858888f19350505050610fc8576040517f08c379a0000000000000000000000000000000000000000000000000000000008152600401610fbf90612c98565b60405180910390fd5b610fd186611e1f565b505050505050505050565b600a5481565b33600180811115610ff657610ff5612747565b5b600660008373ffffffffffffffffffffffffffffffffffffffff1673ffffffffffffffffffffffffffffffffffffffff16815260200190815260200160002060020160009054906101000a900460ff16600181111561105857611057612747565b5b14611098576040517f08c379a000000000000000000000000000000000000000000000000000000000815260040161108f906129e7565b60405180910390fd5b6110a0611fe6565b6110a8611f9c565b600660003373ffffffffffffffffffffffffffffffffffffffff1673ffffffffffffffffffffffffffffffffffffffff16815260200190815260200160002060405180608001604052908160008201548152602001600182015481526020016002820160009054906101000a900460ff16600181111561112b5761112a612747565b5b600181111561113d5761113c612747565b5b81526020016002820160019054906101000a900460ff1615151515815250509150600560008881526020019081526020016000206040518060c00160405290816000820154815260200160018201548152602001600282015481526020016003820180546111aa90612969565b80601f01602080910402602001604051908101604052809291908181526020018280546111d690612969565b80156112235780601f106111f857610100808354040283529160200191611223565b820191906000526020600020905b81548152906001019060200180831161120657829003601f168201915b505050505081526020016004820160009054906101000a900460ff16600181111561125157611250612747565b5b600181111561126357611262612747565b5b81526020016004820160019054906101000a900460ff16151515158152505090506000826020015190506000600860003373ffffffffffffffffffffffffffffffffffffffff1673ffffffffffffffffffffffffffffffffffffffff16815260200190815260200160002054905086846000015114611317576040517f08c379a000000000000000000000000000000000000000000000000000000000815260040161130e90612d2a565b60405180910390fd5b8781101561135a576040517f08c379a000000000000000000000000000000000000000000000000000000000815260040161135190612dbc565b60405180910390fd5b6113648287611e4d565b87600960008881526020019081526020016000208190555087816113889190612ddc565b600860003373ffffffffffffffffffffffffffffffffffffffff1673ffffffffffffffffffffffffffffffffffffffff1681526020019081526020016000208190555060046000838152602001908152602001600020600001869080600181540180825580915050600190039060005260206000200160009091909190915055505050505050505050565b60006001600083815260200190815260200160002060000160009054906101000a900460ff169050919050565b3360018081111561145457611453612747565b5b600660008373ffffffffffffffffffffffffffffffffffffffff1673ffffffffffffffffffffffffffffffffffffffff16815260200190815260200160002060020160009054906101000a900460ff1660018111156114b6576114b5612747565b5b146114f6576040517f08c379a00000000000000000000000000000000000000000000000000000000081526004016114ed906129e7565b60405180910390fd5b60001515600660003373ffffffffffffffffffffffffffffffffffffffff1673ffffffffffffffffffffffffffffffffffffffff16815260200190815260200160002060020160019054906101000a900460ff1615151461158c576040517f08c379a000000000000000000000000000000000000000000000000000000000815260040161158390612e5c565b60405180910390fd5b81600660003373ffffffffffffffffffffffffffffffffffffffff1673ffffffffffffffffffffffffffffffffffffffff168152602001908152602001600020600001819055506001600660003373ffffffffffffffffffffffffffffffffffffffff1673ffffffffffffffffffffffffffffffffffffffff16815260200190815260200160002060020160016101000a81548160ff0219169083151502179055505050565b600015156005600083815260200190815260200160002060040160019054906101000a900460ff1615151461169c576040517f08c379a000000000000000000000000000000000000000000000000000000000815260040161169390612e5c565b60405180910390fd5b81600560008381526020019081526020016000206000018190555060016005600083815260200190815260200160002060040160016101000a81548160ff0219169083151502179055505050565b600033600180811115611700576116ff612747565b5b600660008373ffffffffffffffffffffffffffffffffffffffff1673ffffffffffffffffffffffffffffffffffffffff16815260200190815260200160002060020160009054906101000a900460ff16600181111561176257611761612747565b5b146117a2576040517f08c379a0000000000000000000000000000000000000000000000000000000008152600401611799906129e7565b60405180910390fd5b600860003373ffffffffffffffffffffffffffffffffffffffff1673ffffffffffffffffffffffffffffffffffffffff1681526020019081526020016000205491505090565b60066020528060005260406000206000915090508060000154908060010154908060020160009054906101000a900460ff16908060020160019054906101000a900460ff16905084565b600060016000838152602001908152602001600020600101549050919050565b606060008060003360018081111561186d5761186c612747565b5b600660008373ffffffffffffffffffffffffffffffffffffffff1673ffffffffffffffffffffffffffffffffffffffff16815260200190815260200160002060020160009054906101000a900460ff1660018111156118cf576118ce612747565b5b1461190f576040517f08c379a0000000000000000000000000000000000000000000000000000000008152600401611906906129e7565b60405180910390fd5b611917611f9c565b600560008881526020019081526020016000206040518060c001604052908160008201548152602001600182015481526020016002820154815260200160038201805461196390612969565b80601f016020809104026020016040519081016040528092919081815260200182805461198f90612969565b80156119dc5780601f106119b1576101008083540402835291602001916119dc565b820191906000526020600020905b8154815290600101906020018083116119bf57829003601f168201915b505050505081526020016004820160009054906101000a900460ff166001811115611a0a57611a09612747565b5b6001811115611a1c57611a1b612747565b5b81526020016004820160019054906101000a900460ff16151515158152505090508060600151816080015182604001518360000151955095509550955050509193509193565b600060016000838152602001908152602001600020600201549050919050565b600b5481565b7f30644e72e131a029b85045b68181585d2833e84879b9709143e1f593f00000018310611aea576040517f08c379a0000000000000000000000000000000000000000000000000000000008152600401611ae190612eee565b60405180910390fd5b6000611af584611413565b60ff1614611b38576040517f08c379a0000000000000000000000000000000000000000000000000000000008152600401611b2f90612f80565b60405180910390fd5b6001600084815260200190815260200160002073__IncrementalBinaryTree_________________63b4bdd117909184846040518463ffffffff1660e01b8152600401611b8793929190612fc5565b60006040518083038186803b158015611b9f57600080fd5b505af4158015611bb3573d6000803e3d6000fd5b50505050827fc3082aa494e9088c2c9f0fb62a0b6bd46e6699acb94cfba35be29b95a93f68c88383604051611be9929190612ffc565b60405180910390a2505050565b60008085815260200190815260200160002060009054906101000a900460ff1615611c56576040517f08c379a0000000000000000000000000000000000000000000000000000000008152600401611c4d90613097565b60405180910390fd5b6000611c6187611f65565b90508173ffffffffffffffffffffffffffffffffffffffff16635fe8c13b604051806040016040528086600060088110611c9e57611c9d6130b7565b5b6020020135815260200186600160088110611cbc57611cbb6130b7565b5b60200201358152506040518060400160405280604051806040016040528089600260088110611cee57611ced6130b7565b5b6020020135815260200189600360088110611d0c57611d0b6130b7565b5b60200201358152508152602001604051806040016040528089600460088110611d3857611d376130b7565b5b6020020135815260200189600560088110611d5657611d556130b7565b5b6020020135815250815250604051806040016040528088600660088110611d8057611d7f6130b7565b5b6020020135815260200188600760088110611d9e57611d9d6130b7565b5b602002013581525060405180608001604052808c81526020018b81526020018781526020018a8152506040518563ffffffff1660e01b8152600401611de694939291906132ec565b60006040518083038186803b158015611dfe57600080fd5b505afa158015611e12573d6000803e3d6000fd5b5050505050505050505050565b600160008083815260200190815260200160002060006101000a81548160ff02191690831515021790555050565b6000611e5883611413565b60ff161415611e9c576040517f08c379a0000000000000000000000000000000000000000000000000000000008152600401611e93906133a5565b60405180910390fd5b6001600083815260200190815260200160002073__IncrementalBinaryTree_________________63168703fa9091836040518363ffffffff1660e01b8152600401611ee99291906133c5565b60006040518083038186803b158015611f0157600080fd5b505af4158015611f15573d6000803e3d6000fd5b505050506000611f2483611832565b9050827f03fd27265b7dd1f55558bedc22a58fa3b10afb1be776e614bd5a7ba7b94994068383604051611f589291906133ee565b60405180910390a2505050565b6000600882604051602001611f7a9190613438565b6040516020818303038152906040528051906020012060001c901c9050919050565b6040518060c001604052806000815260200160008152602001600081526020016060815260200160006001811115611fd757611fd6612747565b5b81526020016000151581525090565b604051806080016040528060008152602001600081526020016000600181111561201357612012612747565b5b81526020016000151581525090565b82805461202e90612969565b90600052602060002090601f0160209004810192826120505760008555612097565b82601f1061206957805160ff1916838001178555612097565b82800160010185558215612097579182015b8281111561209657825182559160200191906001019061207b565b5b5090506120a491906120a8565b5090565b5b808211156120c15760008160009055506001016120a9565b5090565b6000604051905090565b600080fd5b600080fd5b6000819050919050565b6120ec816120d9565b81146120f757600080fd5b50565b600081359050612109816120e3565b92915050565b600060208284031215612125576121246120cf565b5b6000612133848285016120fa565b91505092915050565b612145816120d9565b82525050565b6000602082019050612160600083018461213c565b92915050565b600081519050919050565b600082825260208201905092915050565b6000819050602082019050919050565b61219b816120d9565b82525050565b60006121ad8383612192565b60208301905092915050565b6000602082019050919050565b60006121d182612166565b6121db8185612171565b93506121e683612182565b8060005b838110156122175781516121fe88826121a1565b9750612209836121b9565b9250506001810190506121ea565b5085935050505092915050565b6000602082019050818103600083015261223e81846121c6565b905092915050565b600081519050919050565b600082825260208201905092915050565b6000819050602082019050919050565b600073ffffffffffffffffffffffffffffffffffffffff82169050919050565b600061229d82612272565b9050919050565b6122ad81612292565b82525050565b60006122bf83836122a4565b60208301905092915050565b6000602082019050919050565b60006122e382612246565b6122ed8185612251565b93506122f883612262565b8060005b8381101561232957815161231088826122b3565b975061231b836122cb565b9250506001810190506122fc565b5085935050505092915050565b6000602082019050818103600083015261235081846122d8565b905092915050565b61236181612292565b811461236c57600080fd5b50565b60008135905061237e81612358565b92915050565b60006020828403121561239a576123996120cf565b5b60006123a88482850161236f565b91505092915050565b600080fd5b600080fd5b6000601f19601f8301169050919050565b7f4e487b7100000000000000000000000000000000000000000000000000000000600052604160045260246000fd5b612404826123bb565b810181811067ffffffffffffffff82111715612423576124226123cc565b5b80604052505050565b60006124366120c5565b905061244282826123fb565b919050565b600067ffffffffffffffff821115612462576124616123cc565b5b61246b826123bb565b9050602081019050919050565b82818337600083830152505050565b600061249a61249584612447565b61242c565b9050828152602081018484840111156124b6576124b56123b6565b5b6124c1848285612478565b509392505050565b600082601f8301126124de576124dd6123b1565b5b81356124ee848260208601612487565b91505092915050565b60006020828403121561250d5761250c6120cf565b5b600082013567ffffffffffffffff81111561252b5761252a6120d4565b5b612537848285016124c9565b91505092915050565b600061254b82612272565b9050919050565b61255b81612540565b811461256657600080fd5b50565b60008135905061257881612552565b92915050565b6000819050919050565b6125918161257e565b811461259c57600080fd5b50565b6000813590506125ae81612588565b92915050565b600080fd5b6000819050826020600802820111156125d5576125d46125b4565b5b92915050565b6000806000806000806101a087890312156125f9576125f86120cf565b5b600061260789828a016120fa565b965050602061261889828a01612569565b955050604061262989828a0161259f565b945050606061263a89828a016120fa565b935050608061264b89828a016120fa565b92505060a061265c89828a016125b9565b9150509295509295509295565b60008060008060808587031215612683576126826120cf565b5b6000612691878288016120fa565b94505060206126a2878288016120fa565b93505060406126b3878288016120fa565b92505060606126c4878288016120fa565b91505092959194509250565b600060ff82169050919050565b6126e6816126d0565b82525050565b600060208201905061270160008301846126dd565b92915050565b6000806040838503121561271e5761271d6120cf565b5b600061272c858286016120fa565b925050602061273d858286016120fa565b9150509250929050565b7f4e487b7100000000000000000000000000000000000000000000000000000000600052602160045260246000fd5b6002811061278757612786612747565b5b50565b600081905061279882612776565b919050565b60006127a88261278a565b9050919050565b6127b88161279d565b82525050565b60008115159050919050565b6127d3816127be565b82525050565b60006080820190506127ee600083018761213c565b6127fb602083018661213c565b61280860408301856127af565b61281560608301846127ca565b95945050505050565b600081519050919050565b600082825260208201905092915050565b60005b8381101561285857808201518184015260208101905061283d565b83811115612867576000848401525b50505050565b60006128788261281e565b6128828185612829565b935061289281856020860161283a565b61289b816123bb565b840191505092915050565b600281106128b7576128b6612747565b5b50565b60008190506128c8826128a6565b919050565b60006128d8826128ba565b9050919050565b6128e8816128cd565b82525050565b60006080820190508181036000830152612908818761286d565b905061291760208301866128df565b612924604083018561213c565b612931606083018461213c565b95945050505050565b7f4e487b7100000000000000000000000000000000000000000000000000000000600052602260045260246000fd5b6000600282049050600182168061298157607f821691505b602082108114156129955761299461293a565b5b50919050565b7f456d706c6f796572206973206e6f742061637469766500000000000000000000600082015250565b60006129d1601683612829565b91506129dc8261299b565b602082019050919050565b60006020820190508181036000830152612a00816129c4565b9050919050565b7f53656e646572206973206e6f742041646d696e2e000000000000000000000000600082015250565b6000612a3d601483612829565b9150612a4882612a07565b602082019050919050565b60006020820190508181036000830152612a6c81612a30565b9050919050565b7f4e487b7100000000000000000000000000000000000000000000000000000000600052601160045260246000fd5b6000612aad826120d9565b9150612ab8836120d9565b9250827fffffffffffffffffffffffffffffffffffffffffffffffffffffffffffffffff03821115612aed57612aec612a73565b5b828201905092915050565b612b0181612292565b82525050565b6000602082019050612b1c6000830184612af8565b92915050565b600081905092915050565b50565b6000612b3d600083612b22565b9150612b4882612b2d565b600082019050919050565b6000612b5e82612b30565b9150819050919050565b6000612b738261281e565b612b7d8185612b22565b9350612b8d81856020860161283a565b80840191505092915050565b6000612ba58284612b68565b915081905092915050565b7f506c6561736520456e74657220656d706c6f7965654e616d6500000000000000600082015250565b6000612be6601983612829565b9150612bf182612bb0565b602082019050919050565b60006020820190508181036000830152612c1581612bd9565b9050919050565b60006040820190508181036000830152612c36818561286d565b9050612c45602083018461213c565b9392505050565b7f4163636f756e74207472616e73666572206661696c2e00000000000000000000600082015250565b6000612c82601683612829565b9150612c8d82612c4c565b602082019050919050565b60006020820190508181036000830152612cb181612c75565b9050919050565b7f456d706c6f79657220636f6d6d69746d656e74206973206e6f742076616c696460008201527f2e00000000000000000000000000000000000000000000000000000000000000602082015250565b6000612d14602183612829565b9150612d1f82612cb8565b604082019050919050565b60006020820190508181036000830152612d4381612d07565b9050919050565b7f526571756972652066756e64206973206e6f7420617661696c61626c652c205060008201527f6c65617365206164642066756e642e0000000000000000000000000000000000602082015250565b6000612da6602f83612829565b9150612db182612d4a565b604082019050919050565b60006020820190508181036000830152612dd581612d99565b9050919050565b6000612de7826120d9565b9150612df2836120d9565b925082821015612e0557612e04612a73565b5b828203905092915050565b7f416c7265616479207570646174656420636f6d6d69746d656e74000000000000600082015250565b6000612e46601a83612829565b9150612e5182612e10565b602082019050919050565b60006020820190508181036000830152612e7581612e39565b9050919050565b7f53656d6170686f726547726f7570733a2067726f7570206964206d757374206260008201527f65203c20534e41524b5f5343414c41525f4649454c4400000000000000000000602082015250565b6000612ed8603683612829565b9150612ee382612e7c565b604082019050919050565b60006020820190508181036000830152612f0781612ecb565b9050919050565b7f53656d6170686f726547726f7570733a2067726f757020616c7265616479206560008201527f7869737473000000000000000000000000000000000000000000000000000000602082015250565b6000612f6a602583612829565b9150612f7582612f0e565b604082019050919050565b60006020820190508181036000830152612f9981612f5d565b9050919050565b8082525050565b612fb0816126d0565b82525050565b612fbf816120d9565b82525050565b6000606082019050612fda6000830186612fa0565b612fe76020830185612fa7565b612ff46040830184612fb6565b949350505050565b600060408201905061301160008301856126dd565b61301e602083018461213c565b9392505050565b7f53656d6170686f7265436f72653a20796f752063616e6e6f742075736520746860008201527f652073616d65206e756c6c696669657220747769636500000000000000000000602082015250565b6000613081603683612829565b915061308c82613025565b604082019050919050565b600060208201905081810360008301526130b081613074565b9050919050565b7f4e487b7100000000000000000000000000000000000000000000000000000000600052603260045260246000fd5b600060029050919050565b600081905092915050565b6000819050919050565b6000602082019050919050565b61311c816130e6565b61312681846130f1565b9250613131826130fc565b8060005b8381101561316257815161314987826121a1565b965061315483613106565b925050600181019050613135565b505050505050565b600060029050919050565b600081905092915050565b6000819050919050565b600081905092915050565b61319e816130e6565b6131a8818461318a565b92506131b3826130fc565b8060005b838110156131e45781516131cb87826121a1565b96506131d683613106565b9250506001810190506131b7565b505050505050565b60006131f88383613195565b60408301905092915050565b6000602082019050919050565b61321a8161316a565b6132248184613175565b925061322f82613180565b8060005b8381101561326057815161324787826131ec565b965061325283613204565b925050600181019050613233565b505050505050565b600060049050919050565b600081905092915050565b6000819050919050565b6000602082019050919050565b61329e81613268565b6132a88184613273565b92506132b38261327e565b8060005b838110156132e45781516132cb87826121a1565b96506132d683613288565b9250506001810190506132b7565b505050505050565b6000610180820190506133026000830187613113565b61330f6040830186613211565b61331c60c0830185613113565b61332a610100830184613295565b95945050505050565b7f53656d6170686f726547726f7570733a2067726f757020646f6573206e6f742060008201527f6578697374000000000000000000000000000000000000000000000000000000602082015250565b600061338f602583612829565b915061339a82613333565b604082019050919050565b600060208201905081810360008301526133be81613382565b9050919050565b60006040820190506133da6000830185612fa0565b6133e76020830184612fb6565b9392505050565b6000604082019050613403600083018561213c565b613410602083018461213c565b9392505050565b6000819050919050565b61343261342d8261257e565b613417565b82525050565b60006134448284613421565b6020820191508190509291505056fea26469706673582212203eb9e5ee296f95d366f86a30ee4d7fe61de6b1abed7a380c56041b23f117b32764736f6c634300080a0033",
  "immutableReferences": {},
  "source": "// SPDX-License-Identifier: MIT\r\npragma solidity ^0.8.4;\r\nimport \"@appliedzkp/semaphore-contracts/base/SemaphoreCore.sol\";\r\nimport \"@appliedzkp/semaphore-contracts/base/SemaphoreGroups.sol\";\r\nimport \"../Interface/IZKPayroll.sol\";\r\n\r\n\r\ncontract ZKPayroll is IZKPayroll,SemaphoreCore,SemaphoreGroups {\r\n\r\n//  IVerifier public verifiers;\r\n\r\nstruct listOfemployees{\r\n\r\n    uint256[] employeeId;\r\n}\r\n\r\nstruct listOfLeaves{\r\n\r\n    uint256[] leaves;\r\n}\r\n\r\nmapping(uint8 => IVerifier) internal verifiers;\r\n\r\naddress[] listOfEmployer;\r\n\r\nmapping(uint256 => listOfLeaves) employerToLeaves;\r\n\r\nmapping(uint256 => employee) idToemployee;\r\n\r\nmapping(address => employer)  public addressToemployer;\r\n\r\nmapping(address => listOfemployees) addressToemployees;\r\n\r\nmapping(address => uint256) addressTofundValue;\r\n\r\nmapping(uint256 => uint256) notesTosalary;\r\n\r\nuint256 public employerCount;\r\nuint256 public employeesCount;\r\n\r\n\r\n\r\naddress admin;\r\n\r\nconstructor(address _verifiersAddress) {\r\n\r\n   admin = msg.sender;\r\n   verifiers[20] = IVerifier(_verifiersAddress);\r\n\r\n  }\r\n\r\nmodifier onlyAdmin(address _sender) {\r\n    require(admin == _sender,\"Sender is not Admin.\");\r\n    _;\r\n}\r\n\r\nmodifier onlyEmployer(address _sender) {\r\n    require(addressToemployer[_sender].state == employerState.active, \"Employer is not active\");\r\n    _;\r\n}\r\n\r\n//for testing any one can register employer\r\n//On mainnet only Admin can register employer\r\nfunction createEmployer(address _employerAddress) public override {\r\n\r\n    employerCount += 1 ;\r\n\r\n    _createGroup(employerCount, 20, 0);\r\n\r\n    employer memory _employer;\r\n\r\n    _employer.employerId = employerCount;\r\n\r\n    _employer.state = employerState.active;\r\n\r\n    _employer.commitmentCheck = false;\r\n\r\n    addressToemployer[_employerAddress] = _employer;\r\n\r\n    listOfEmployer.push(_employerAddress);\r\n\r\n    emit employerCreated(_employerAddress);\r\n}\r\n\r\nfunction addEmployerCommitment(uint256 _commitment) public override onlyEmployer(msg.sender){\r\n\r\n    require(addressToemployer[msg.sender].commitmentCheck == false,\"Already updated commitment\");\r\n\r\n    addressToemployer[msg.sender].employerCommitment = _commitment;\r\n\r\n    addressToemployer[msg.sender].commitmentCheck = true;\r\n\r\n}\r\n\r\nfunction addEmployee(string memory _employeeName) public override onlyEmployer(msg.sender)  {\r\n\r\n    require(keccak256(abi.encodePacked(_employeeName)) != keccak256(abi.encodePacked(\"\")),\"Please Enter employeeName\");\r\n\r\n    employee memory _addemployee;\r\n\r\n    employeesCount += 1;\r\n\r\n    _addemployee.employeeId = employeesCount;\r\n\r\n    _addemployee.employeeName = _employeeName;\r\n\r\n    _addemployee.state = employeeState.active;\r\n\r\n    _addemployee.employerId = addressToemployer[msg.sender].employerId;\r\n\r\n    _addemployee.commitmentCheck = false;\r\n\r\n    addressToemployees[msg.sender].employeeId.push(employeesCount);\r\n\r\n    idToemployee[employeesCount] = _addemployee;\r\n\r\n    emit employeeCreated(_employeeName,employeesCount);\r\n\r\n}\r\n\r\nfunction addEmployeeCommitment(uint256 _commitment,uint256 _id) public override {\r\n\r\n    require(idToemployee[_id].commitmentCheck == false,\"Already updated commitment\");\r\n\r\n    idToemployee[_id].employeeCommitment = _commitment;\r\n\r\n    idToemployee[_id].commitmentCheck = true;\r\n}\r\n\r\nfunction getEmployeeIdList() public view override onlyEmployer(msg.sender) returns(uint256[] memory _employeeIdList) {\r\n    return(addressToemployees[msg.sender].employeeId);\r\n}\r\n\r\nfunction getEmployerLeaves(uint256 _employerId) public view override returns(uint256[] memory _employerLeaves) {\r\n    return(employerToLeaves[_employerId].leaves);\r\n}\r\n\r\nfunction getEmployerList() public view override onlyAdmin(msg.sender) returns (address[] memory _employerList) {\r\n    return(listOfEmployer);\r\n}\r\n\r\nfunction getEmployeeDetails(uint256 _id) public view override onlyEmployer(msg.sender) returns(string memory _employeeName, employeeState _state,uint256 _employerId,uint256 _employeeCommitment) {\r\n    employee memory _employeeDetails;\r\n    _employeeDetails = idToemployee[_id];\r\n\r\n    return(_employeeDetails.employeeName,_employeeDetails.state,_employeeDetails.employerId,_employeeDetails.employeeCommitment);\r\n}\r\n\r\nfunction getEmployeeEmployerId(uint256 _id) public view override returns(uint256 _employerId){\r\n    employee memory _employeeDetails;\r\n    _employeeDetails = idToemployee[_id];\r\n\r\n    return(_employeeDetails.employerId);\r\n}\r\n\r\n\r\n\r\nfunction addfundToContract() public payable override onlyEmployer(msg.sender) {\r\n    addressTofundValue[msg.sender] += msg.value;\r\n}\r\n\r\nfunction getAvailableFund() public view override onlyEmployer(msg.sender) returns(uint256 _fundValue) {\r\n    return(addressTofundValue[msg.sender]);\r\n}\r\n\r\nfunction addNotes(uint256 _employeeId,uint256 _salary, uint256 _receivedCommitment,uint256 _identityCommitment) public override onlyEmployer(msg.sender){\r\n    employer memory _employer;\r\n    employee memory _employee;\r\n    _employer = addressToemployer[msg.sender];\r\n    _employee = idToemployee[_employeeId];\r\n    uint256 _employerId = _employer.employerId;\r\n\r\n    uint256 _fund = addressTofundValue[msg.sender];\r\n    \r\n    require(_employer.employerCommitment == _receivedCommitment,\"Employer commitment is not valid.\");\r\n\r\n    require(_fund >= _salary,\"Require fund is not available, Please add fund.\");\r\n\r\n    _addMember(_employerId, _identityCommitment);\r\n \r\n    notesTosalary[_identityCommitment] = _salary;\r\n\r\n    addressTofundValue[msg.sender] = _fund - _salary;\r\n\r\n    employerToLeaves[_employerId].leaves.push(_identityCommitment);\r\n\r\n  }\r\n\r\n//   function addToleaves(uint256 _a) public onlyEmployer(msg.sender) {\r\n//       uint256 _employerId = addressToemployer[msg.sender].employerId;\r\n//       _addMember(_employerId, _a);\r\n//   }\r\n\r\n\r\n  function withdrawNotes(uint256 _withdrawalNotes,address payable _withdrawalAddress,bytes32 withdraw,uint256 nullifierHash,uint256 employerId,uint256[8] calldata proof) public override  {\r\n\r\n    \r\n    uint256 root = getRoot(employerId);\r\n    IVerifier verifier = verifiers[20];\r\n\r\n    _verifyProof(withdraw, root, nullifierHash, employerId, proof, verifier);\r\n\r\n    uint256 _salary = notesTosalary[_withdrawalNotes];\r\n\r\n    require(_withdrawalAddress.send(_salary),\"Account transfer fail.\");\r\n\r\n    // Prevent double-voting (nullifierHash = hash(pollId + identityNullifier)).\r\n    _saveNullifierHash(nullifierHash);\r\n\r\n  }\r\n\r\n}",
  "sourcePath": "F:\\Blockchain\\Harmony\\ZKPayroll\\backend\\contracts\\ZKPayroll.sol",
  "compiler": {
    "name": "solc",
    "version": "0.8.10+commit.fc410830.Emscripten.clang"
  },
  "schemaVersion": "3.4.3",
  "updatedAt": "2022-04-28T02:53:56.387Z",
  "networkType": "ethereum",
  "devdoc": {
    "kind": "dev",
    "methods": {
      "getDepth(uint256)": {
        "details": "See {ISemaphoreGroups-getDepth}."
      },
      "getNumberOfLeaves(uint256)": {
        "details": "See {ISemaphoreGroups-getNumberOfLeaves}."
      },
      "getRoot(uint256)": {
        "details": "See {ISemaphoreGroups-getRoot}."
      }
    },
    "version": 1
  },
  "userdoc": {
    "events": {
      "NullifierHashAdded(uint256)": {
        "notice": "Emitted when a proof is verified correctly and a new nullifier hash is added."
      }
    },
    "kind": "user",
    "methods": {},
    "version": 1
  }
}